:020000040000FA
:0400000007EF00F016
:0A000800468259ED13F09FEF13F04C
:1010000000524135202D3E206E657874004C5444CA
:101010002053797374656D004D41582068756D6972
:101020003A004D61782054656D703A00576F726BCD
:0B103000696E6700483A00543A000067
:10103C007CEF0AF098519911D8A427EF08F029EF0A
:10104C0008F03DEF08F0000E8C6E010E7EEC14F0F3
:10105C00800E7EEC14F00D0E0001D66F100ED76FC3
:10106C003EEC14F0000E0001996F010E986F325097
:10107C003310D8A444EF08F046EF08F09AEF0AF0CA
:10108C004004D8A44CEF08F04EEF08F09AEF0AF0A9
:10109C00000E406E000E996F000E986F010E3C6EA4
:1010AC009AEF0AF096519711D8A45FEF08F061EF10
:1010BC0008F0A3EF08F0010E7EEC14F0800E7EEC2D
:1010CC0014F0800E7EEC14F0220E0001D66F100E80
:1010DC00D76F3EEC14F0890E7EEC14F044C0D0F0C7
:1010EC0045C0D1F0000E0001D36F0A0ED26F4AEC4E
:1010FC0012F00001D051300F5EEC14F044C0D0F06F
:10110C0045C0D1F0000E0001D36F0A0ED26FADECCA
:10111C0012F00001D051300F5EEC14F0C00E7EECDA
:10112C0014F0010E0001D66F100ED76F3EEC14F0C8
:10113C00000E0001976F010E966FB851B911D8A42B
:10114C00AAEF08F0ACEF08F0EDEF08F03D04D8A4DE
:10115C00B2EF08F0B4EF08F0EDEF08F0050E442400
:10116C00446E000E4520456E890E7EEC14F044C092
:10117C00D0F045C0D1F0000E0001D36F0A0ED26F33
:10118C004AEC12F00001D051300F5EEC14F044C068
:10119C00D0F045C0D1F0000E0001D36F0A0ED26F13
:1011AC00ADEC12F00001D051300F5EEC14F05A0E81
:1011BC0044184510D8A4E5EF08F0E7EF08F0EBEF82
:1011CC0008F0000E456E0F0E446E000E3D6E325050
:1011DC003310D8A4F4EF08F0F6EF08F09AEF0AF009
:1011EC004004D8A4FCEF08F0FEEF08F09AEF0AF0E8
:1011FC00000E406E020E3C6E000E0001976F000E4A
:10120C00966F9AEF0AF094519511D8A410EF09F04B
:10121C0012EF09F053EF09F0010E7EEC14F0800E82
:10122C007EEC14F0180E0001D66F100ED76F3EEC4A
:10123C0014F0890E7EEC14F042C0D0F043C0D1F013
:10124C00000E0001D36F0A0ED26F4AEC12F00001AF
:10125C00D051300F5EEC14F042C0D0F043C0D1F04E
:10126C00000E0001D36F0A0ED26FADEC12F000012C
:10127C00D051300F5EEC14F0C00E7EEC14F0010E69
:10128C000001D66F100ED76F3EEC14F0000E3D6EC1
:10129C00000E0001956F010E946FB851B911D8A4CE
:1012AC005AEF09F05CEF09F09DEF09F03D04D8A46A
:1012BC0062EF09F064EF09F09DEF09F0050E42248E
:1012CC00426E000E4320436E5F0E42184310D8A4AA
:1012DC0072EF09F074EF09F078EF09F0000E436E2D
:1012EC00370E426E890E7EEC14F042C0D0F043C033
:1012FC00D1F0000E0001D36F0A0ED26F4AEC12F03F
:10130C000001D051300F5EEC14F042C0D0F043C05D
:10131C00D1F0000E0001D36F0A0ED26FADEC12F0BB
:10132C000001D051300F5EEC14F0000E3D6E3250C7
:10133C003310D8A4A4EF09F0A6EF09F09AEF0AF045
:10134C004004D8A4ACEF09F0AEEF09F09AEF0AF024
:10135C00000E406E030E3C6E000E0001956F000EE9
:10136C00946F44C0D0F045C0D1F0000ED36F320E54
:10137C00D26FE6EC14F0D0C0ECF0D1C0EDF0000E62
:10138C000001D96F0A0ED86F070EDB6FD00EDA6F23
:10139C00880EDC6F220EDD6F000EDE6F97EC0CF00A
:1013AC00ECC0D8F0EDC0D9F0ECC0DAF0EDC0DBF059
:1013BC00140E0001DC6F2B0EDD6F000EDE6F97EC50
:1013CC000CF0ECC0D8F0EDC0D9F0ECC0DAF0EDC008
:1013DC00DBF0400E0001DC6F2A0EDD6F000EDE6FBD
:1013EC0097EC0CF0D8900001EC35D86FED35D96F37
:1013FC00ECC0DAF0EDC0DBF0660EDC6F2A0EDD6FB0
:10140C00000EDE6F97EC0CF0D8900001EC35D86F25
:10141C00ED35D96FECC0DAF0EDC0DBF01A0EDC6FF5
:10142C002A0EDD6F000EDE6F97EC0CF037500001CA
:10143C00E96FEA6B4250E95DEA51800AEB6F435069
:10144C00800AEB59D8A02DEF0AF02FEF0AF09AEF93
:10145C000AF0030ED96FE80ED86F030EDB6FE80E9F
:10146C00DA6FF40EDC6F290EDD6F000EDE6F97EC79
:10147C000CF09AEF0AF092519311D8A448EF0AF0AD
:10148C004AEF0AF05FEF0AF0010E7EEC14F0800ECA
:10149C007EEC14F02C0E0001D66F100ED76F3EECC4
:1014AC0014F0C00E7EEC14F0000E0001936F010ED0
:1014BC00926F32503310D8A466EF0AF068EF0AF03E
:1014CC009AEF0AF04004D8A46EEF0AF070EF0AF01D
:1014DC009AEF0AF0000E406E000E3C6E000E936FF9
:1014EC00000E926F32EC10F09AEF0AF03C500001B3
:1014FC00E96FEA6BEA51000AD8B487EF0AF09AEF69
:10150C000AF0E951000AD8B420EF08F0010AD8B467
:10151C0058EF08F0030AD8B409EF09F0010AD8B45F
:10152C0041EF0AF09AEF0AF01200000E1B6E000E4B
:10153C001A6E000E0001896F000E886F25BEB2EF87
:10154C000AF0255007E1050E245CD8B0B0EF0AF084
:10155C00B2EF0AF0B4EF0AF096EF0CF0000E026E48
:10156C00000E016E000E046E0B0E036E46EC15F0B1
:10157C00000E0124D96E010E0220DA6EDE06000E7A
:10158C00DD5A77EF0CF01AC001F01BC002F0000E10
:10159C00046E0B0E036E46EC15F0080E0124D96E8A
:1015AC00010E0220DA6E88C001F089C002F0000E34
:1015BC00046E030E036E46EC15F0600E0124E16E12
:1015CC00000E0220E26EDECFE6FFDECFE6FFDECFBE
:1015DC00E6FF1AC001F01BC002F0000E046E0B0EE9
:1015EC00036E46EC15F0040E0124D96E010E022098
:1015FC00DA6EDECF12F0DDCF13F01AC001F01BC093
:10160C0002F0000E046E0B0E036E46EC15F0040E89
:10161C000124D96E010E0220DA6EDECF16F0DDCF7A
:10162C0017F01AC001F01BC002F0000E046E0B0E76
:10163C00036E46EC15F0080E0124D96E010E022043
:10164C00DA6EDECF0FF0DECF10F0DDCF11F00BEC49
:10165C000FF016501710D8B436EF0BF038EF0BF024
:10166C0074EF0CF0000E1D6E000E1C6E58EF0BF09C
:10167C001CC001F01DC002F0000E046E0B0E036EB8
:10168C0046EC15F0000E0124D96E010E0220DA6E24
:10169C00DECF14F0DDCF15F01450165E1550175A2E
:1016AC001C4A1D2AFF0E0A6EFF0E0B6E24C00CF096
:1016BC0025C00DF00A500C260B500D221C500C5C52
:1016CC000D50800A0E6E1D50800A0E58D8A071EF76
:1016DC000BF073EF0BF092EF0BF01CC001F01DC080
:1016EC0002F0000E046E0B0E036E46EC15F0000EAD
:1016FC000124D96E010E0220DA6EDE50165C1750F2
:10170C00800A0C6EDE50800A0C58D8B090EF0BF0AB
:10171C0092EF0BF03EEF0BF0FF0E2424186EFF0E31
:10172C002520196EC2EF0BF018C001F019C002F0A1
:10173C00000E046E0B0E036E46EC15F0000E012429
:10174C00D96E010E0220DA6E18C001F019C002F039
:10175C00000E046E0B0E036E46EC15F00B0E0124FE
:10176C00E16E010E0220E26E0A0EDBCFE3FFE8060B
:10177C00FCE21806D8A019061C50185C1950800AF7
:10178C000A6E1D50800A0A58D8B0CFEF0BF0D1EF7B
:10179C000BF09AEF0BF01CC001F01DC002F0000E14
:1017AC00046E0B0E036E46EC15F0000E0124D96E80
:1017BC00010E0220DA6E16C0DEFF17C0DDFF1CC062
:1017CC0001F01DC002F0000E046E0B0E036E46EC11
:1017DC0015F0040E0124D96E010E0220DA6E12C02F
:1017EC00DEFF13C0DDFF1CC001F01DC002F0000EB7
:1017FC00046E0B0E036E46EC15F0080E0124D96E28
:10180C00010E0220DA6E0FC0DEFF10C0DEFF11C029
:10181C00DEFF244A252A1CC001F01DC002F0000E78
:10182C00046E0B0E036E46EC15F00B0E0124D96EF4
:10183C00010E0220DA6E010EDBBE2EEF0CF0010E53
:10184C00DB5008E1DE04D8A02EEF0CF030EF0CF0EA
:10185C0070EF0CF01CC001F01DC002F0000E046E05
:10186C000B0E036E46EC15F0000E0124D96E010E22
:10187C000220DA6EDECF0AF0DDCF0BF01CC001F0D7
:10188C001DC002F0000E046E0B0E036E46EC15F03C
:10189C000B0E0124D96E010E0220DA6EDECF0CF095
:1018AC00DDCF0DF00A500C5E0B500D5A1CC001F030
:1018BC001DC002F0000E046E0B0E036E46EC15F00C
:1018CC000B0E0124D96E010E0220DA6E0CC0DEFF65
:1018DC000DC0DDFF000E1B6E000E1A6E0001884B52
:1018EC00892B1AC001F01BC002F0000E046E0B0E07
:1018FC00036E46EC15F0000E0124D96E010E022089
:10190C00DA6E010EDBBE94EF0CF0010EDB5008E139
:10191C00DE04D8A094EF0CF096EF0CF0C9EF0AF0AF
:10192C0012000A0E24182510D8A49FEF0CF0A1EF7A
:10193C000CF0A3EF0CF063EF0EF024502510D8A49C
:10194C00AAEF0CF0ACEF0CF0E8EF0CF0D8C0D0F034
:10195C00D9C0D1F0000E0001D36F0A0ED26F4AEC41
:10196C0012F0D0C000F1D1C001F1D8C0D0F0D9C074
:10197C00D1F0000E0001D36F0A0ED26F4AEC12F0B8
:10198C00D0C002F1D1C003F1DAC0D0F0DBC0D1F08D
:10199C00000E0001D36F0A0ED26F4AEC12F0D0C0C9
:1019AC0004F1D1C005F1000E0101076F000E066FA6
:1019BC00DCC008F1DDC009F1DEC00AF1244A252A99
:1019CC0063EF0EF0000E0001E46F000EE36FFF0EEC
:1019DC002424E76FFF0E2520E86F1FEF0DF0E7C002
:1019EC00D0F0E8C0D1F0000ED36F0B0ED26FE6EC46
:1019FC0014F0000E0001D025D96E010ED121DA6E43
:101A0C00E7C0D0F0E8C0D1F0000ED36F0B0ED26F50
:101A1C00E6EC14F00B0E0001D025E16E010ED12185
:101A2C00E26E0A0EDBCFE3FFE806FCE2E707D8A084
:101A3C00E807E8BF24EF0DF026EF0DF051EF0DF0A5
:101A4C00E7C0D0F0E8C0D1F0000ED36F0B0ED26F10
:101A5C00E6EC14F0020E0001D025D96E010ED12156
:101A6C00DA6ED8C0D0F0D9C0D1F0000ED36F0A0E08
:101A7C00D26F4AEC12F00001D051DE5CDE50800ACD
:101A8C00E16FD151800AE159D8B04FEF0DF051EF11
:101A9C000DF0F5EF0CF0000EE66F000EE56F6EEF3B
:101AAC000DF0E5C0D0F0E6C0D1F0000ED36F0B0EF8
:101ABC00D26FE6EC14F0000E0001D025D96E010EA9
:101ACC00D121DA6EDE50E327DD50E423E54BE62B23
:101ADC00E551E75DE851800ADF6FE651800ADF5976
:101AEC00D8B07BEF0DF07DEF0DF057EF0DF0E7C0A8
:101AFC00D0F0E8C0D1F0000ED36F0B0ED26FE6EC35
:101B0C0014F00B0E0001D025D96E010ED121DA6E26
:101B1C00D8C0D0F0D9C0D1F0000ED36F0A0ED26F5E
:101B2C004AEC12F00001E351D05FE451D15BD0C01C
:101B3C00DEFFD1C0DDFFE7C0D0F0E8C0D1F0000E71
:101B4C00D36F0B0ED26FE6EC14F00F0E0001D02504
:101B5C00D96E010ED121DA6EDAC0D0F0DBC0D1F033
:101B6C00000ED36F0A0ED26F4AEC12F00001D0C0F7
:101B7C00DEFFD1C0DDFFE7C0D0F0E8C0D1F0000E31
:101B8C00D36F0B0ED26FE6EC14F00D0E0001D025C6
:101B9C00D96E010ED121DA6ED8C0D0F0D9C0D1F0F7
:101BAC00000ED36F0A0ED26F4AEC12F00001D0C0B7
:101BBC00DEFFD1C0DDFF000E0101076F000E066FC6
:101BCC00E7C0D0F0E8C0D1F0000E0001D36F0B0ECF
:101BDC00D26FE6EC14F0130E0001D025D96E010E75
:101BEC00D121DA6EDCC0DEFFDDC0DEFFDEC0DEFF41
:101BFC00244A252AE7C0D0F0E8C0D1F0000ED36FFC
:101C0C000B0ED26FE6EC14F0160E0001D025D96E37
:101C1C00010ED121DA6E010EDBBE1EEF0EF0010EAD
:101C2C00DB5008E1DE04D8A01EEF0EF020EF0EF022
:101C3C0063EF0EF0E7C0D0F0E8C0D1F0000ED36F28
:101C4C000B0ED26FE6EC14F00B0E0001D025D96E02
:101C5C00010ED121DA6EDECFDFF0DDCFE0F0E7C090
:101C6C00D0F0E8C0D1F0000ED36F0B0ED26FE6ECC3
:101C7C0014F0160E0001D025D96E010ED121DA6EAA
:101C8C00DECFE1F0DDCFE2F0DF51E15FE051E25B6E
:101C9C00E7C0D0F0E8C0D1F0000ED36F0B0ED26FBE
:101CAC00E6EC14F0160E0001D025D96E010ED121F0
:101CBC00DA6EE1C0DEFFE2C0DDFF1200BEC030F024
:101CCC00BFC031F080BA6DEF0EF071EF0EF0016A0B
:101CDC00012A72EF0EF0016A01500001BE6FBF6B5A
:101CEC00BCC02EF0BDC02FF081B07FEF0EF083EFA3
:101CFC000EF0016A012A84EF0EF0016A0150000116
:101D0C00BC6FBD6B3050BE1907E13150BF19D8A460
:101D1C0092EF0EF094EF0EF0BAEF0EF0305031104F
:101D2C00D8A49BEF0EF09DEF0EF0ADEF0EF04050EF
:101D3C00D8A4A3EF0EF0A5EF0EF0ADEF0EF0000E51
:101D4C00336E010E326E010E406EBAEF0EF030049F
:101D5C003110D8A4B4EF0EF0B6EF0EF0BAEF0EF0CF
:101D6C00000E336E000E326E2E50BC1907E12F5050
:101D7C00BD19D8A4C4EF0EF0C6EF0EF00AEF0FF0A9
:101D8C002E502F10D8A4CDEF0EF0CFEF0EF0F7EFB2
:101D9C000EF03F50D8A4D5EF0EF0D7EF0EF0DBEFDE
:101DAC000EF0000EC16F010EC06F3F04D8A4E1EF1E
:101DBC000EF0E3EF0EF0E5EF0EF09C4B9D2B9DBF6C
:101DCC00F1EF0EF09D5109E1650E9C5DD8A0F1EF8D
:101DDC000EF0F3EF0EF00AEF0FF0A24BA32B0AEF6D
:101DEC000FF02E042F10D8A4FEEF0EF000EF0FF022
:101DFC000AEF0FF0000EC16F000EC06F000E3F6EA9
:101E0C00000E9D6F000E9C6F120024502510D8A45C
:101E1C0012EF0FF014EF0FF016EF0FF0A7EF0FF01B
:101E2C00000E096E010E086E43EF0FF008C001F0B2
:101E3C0009C002F0000E046E0B0E036E46EC15F09A
:101E4C00000E0124D96E010E0220DA6E08C001F0DA
:101E5C0009C002F0000E046E0B0E036E46EC15F07A
:101E6C00F50E0124E16E000E0220E26E0A0EDBCFAD
:101E7C00E3FFE806FCE2084A092A2450085C0950F2
:101E8C00800A076E2550800A0758D8A050EF0FF033
:101E9C0052EF0FF01CEF0FF024C001F025C002F040
:101EAC00000E046E0B0E036E46EC15F0F50E0124BD
:101EBC00D96E000E0220DA6EFF0EDE6EFF0EDD6EA6
:101ECC0024C001F025C002F0000E046E0B0E036E50
:101EDC0046EC15F0F90E0124D96E000E0220DA6ED4
:101EEC00000EDE6E000EDD6E24C001F025C002F087
:101EFC00000E046E0B0E036E46EC15F0FB0E012467
:101F0C00D96E000E0220DA6E000EDE6E000EDD6E53
:101F1C0024C001F025C002F0000E046E0B0E036EFF
:101F2C0046EC15F0FD0E0124D96E000E0220DA6E7F
:101F3C00000EDE6E000EDE6E000EDE6E2406D8A0E5
:101F4C0025061200000E0001E16F000EE06F08EF95
:101F5C0010F0E0C0D0F0E1C0D1F0000ED36F030E52
:101F6C00D26FE6EC14F0600E0001D025D96E000E95
:101F7C00D121DA6EDECFDDF0DECFDEF0DDCFDFF0AB
:101F8C00E0C0D0F0E1C0D1F0000ED36F030ED26FE1
:101F9C00E6EC14F0600E0001D025D96E000ED121B4
:101FAC00DA6EDE50DE10DE10D8B4DFEF0FF0E1EFAA
:101FBC000FF006EF10F002D8EEEF0FF00500FA6EFE
:101FCC00DD51FD6EDE51FE6EDF51FF6EFA501200D8
:101FDC00E0C0D0F0E1C0D1F0000E0001D36F030ED1
:101FEC00D26FE6EC14F0600E0001D025D96E000E15
:101FFC00D121DA6E000EDE6E000EDE6E000EDE6E8D
:10200C00E04BE12BE1BF16EF10F0E15107E10A0EB6
:10201C00E05DD8B014EF10F016EF10F031EF10F0C7
:10202C00E0C0D0F0E1C0D1F0000ED36F030ED26F40
:10203C00E6EC14F0600E0001D025D96E000ED12113
:10204C00DA6EDE50DE10DE10D8A42FEF10F031EF78
:10205C0010F0AFEF0FF01200000E256E000E246E84
:10206C00000E0001896F000E886F000ED76F000EF6
:10207C00D66FD6C0D0F0D7C0D1F0000ED36F0B0EF8
:10208C00D26FE6EC14F0000E0001D025D96E010ED3
:10209C00D121DA6EFF0EDE6EFF0EDD6ED6C0D0F0F3
:1020AC00D7C0D1F0000ED36F0B0ED26FE6EC14F04C
:1020BC00020E0001D025D96E010ED121DA6EFF0E71
:1020CC00DE6EFF0EDD6ED6C0D0F0D7C0D1F0000EA4
:1020DC00D36F0B0ED26FE6EC14F0040E0001D0257A
:1020EC00D96E010ED121DA6E000EDE6E000EDD6EA1
:1020FC00D6C0D0F0D7C0D1F0000ED36F0B0ED26F7C
:10210C00E6EC14F0060E0001D025D96E010ED1219B
:10211C00DA6E000EDE6E000EDD6ED6C0D0F0D7C0CB
:10212C00D1F0000ED36F0B0ED26FE6EC14F0080E4C
:10213C000001D025D96E010ED121DA6E000EDE6EB3
:10214C00000EDE6E000EDE6ED64BD72BD7BFB8EF6F
:10215C0010F0D75109E10A0ED65DD8A0B8EF10F0F7
:10216C00BAEF10F03FEF10F01200B6C02CF0B7C071
:10217C002DF080BAC4EF10F0C8EF10F0016A012AFC
:10218C00C9EF10F0016A01500001B66FB76BB4C013
:10219C002AF0B5C02BF081B0D6EF10F0DAEF10F0CA
:1021AC00016A012ADBEF10F0016A01500001B46FE3
:1021BC00B56B2A50B41907E12B50B519D8A4E9EF27
:1021CC0010F0EBEF10F011EF11F02A502B10D8A4F7
:1021DC00F2EF10F0F4EF10F004EF11F03D50D8A432
:1021EC00FAEF10F0FCEF10F004EF11F0000EB96FE5
:1021FC00010EB86F010E3D6E11EF11F02A042B1079
:10220C00D8A40BEF11F00DEF11F011EF11F0000E3F
:10221C00B96F000EB86F2C50B61907E12D50B719D5
:10222C00D8A41BEF11F01DEF11F043EF11F02C505F
:10223C002D10D8A424EF11F026EF11F034EF11F08B
:10224C003E50D8A42CEF11F02EEF11F034EF11F01A
:10225C00000EBB6F010EBA6F43EF11F02C042D1062
:10226C00D8A43BEF11F03DEF11F043EF11F0000E4D
:10227C00BB6F000EBA6F000E3E6E120059EC15F0DB
:10228C0006EC13F0C9EC11F0376EC9EC11F0386E96
:10229C00C9EC11F0356EC9EC11F0366EC9EC11F0C9
:1022AC00346E8A0E7EEC14F0385037C0D8F0000132
:1022BC00D96BD827000ED9233550D827000ED92337
:1022CC003650D827000ED923D8513418D8B471EF12
:1022DC0011F073EF11F075EF11F0C8EF11F0C40E9F
:1022EC007EEC14F0370E0001D66F100ED76F3EEC5B
:1022FC0014F035C0D0F00001D16B000ED36F0A0E74
:10230C00D26F4AEC12F00001D051300F5EEC14F099
:10231C0035C0D0F00001D16B000ED36F0A0ED26F16
:10232C00ADEC12F00001D051300F5EEC14F0C00E89
:10233C007EEC14F0CA0E7EEC14F0340E0001D66F55
:10234C00100ED76F3EEC14F037C0D0F00001D16BFB
:10235C00000ED36F0A0ED26F4AEC12F00001D0516E
:10236C00300F5EEC14F037C0D0F00001D16B000ED2
:10237C00D36F0A0ED26FADEC12F00001D051300FBA
:10238C005EEC14F01200000E0001D26F270ED46F19
:10239C00100ED36F000ED56FE3EF11F0D307D8A05A
:1023AC00D407D351D411D8A4DEEF11F0E0EF11F023
:1023BC00E3EF11F0000E49EF12F082A0E8EF11F0FC
:1023CC00EAEF11F0D4EF11F0140EE82EFED700D086
:1023DC0082A0F3EF11F0F6EF11F0010EF7EF11F010
:1023EC00000E0001D06FD16BD0A1FFEF11F001EF07
:1023FC0012F014EF12F0D5510708D06F010ED16F07
:10240C00D02B0BEF12F0D890D137D02F09EF12F060
:10241C000001D151FF0AD2173FEF12F0D551070836
:10242C00D06F010ED16FD02B1EEF12F0D890D13798
:10243C00D02F1CEF12F00001D151D213270ED46F04
:10244C00100ED36F38EF12F0D307D8A0D407D351A6
:10245C00D411D8A434EF12F036EF12F038EF12F09A
:10246C00E0EF11F082B03DEF12F03FEF12F02AEFE7
:10247C0012F0D52B070ED56546EF12F048EF12F08F
:10248C00E3EF11F0D2511200000E0001D56FD3BF53
:10249C0054EF12F052EF12F05AEF12F0D26DD31F2C
:1024AC00D8B0D32B010ED56FD1BF61EF12F05FEF17
:1024BC0012F067EF12F0D06DD11FD8B0D12B010EF6
:1024CC00D51B000ED76F000ED66FD251D311D8B4D6
:1024DC0072EF12F074EF12F09CEF12F0010ED46F49
:1024EC007CEF12F0D890D237D337D42BD3AF81EF07
:1024FC0012F083EF12F078EF12F0D890D637D7376E
:10250C00D251D05DD351D159D8A08FEF12F091EFA9
:10251C0012F096EF12F0D251D05FD351D15BD6812D
:10252C00D890D333D233D42F83EF12F0D551D8B403
:10253C00A2EF12F0A4EF12F0A8EF12F0D66DD71F95
:10254C00D8B0D72BD6C0D0F0D7C0D1F01200000E27
:10255C000001D56FD1BFB7EF12F0B5EF12F0BDEFA0
:10256C0012F0D06DD11FD8B0D12B010ED56FD3BFC7
:10257C00C4EF12F0C2EF12F0C8EF12F0D26DD31FFD
:10258C00D8B0D32BD251D311D8B4CFEF12F0D1EFA6
:10259C0012F0F5EF12F0010ED46FD9EF12F0D890C3
:1025AC00D237D337D42BD3AFDEEF12F0E0EF12F0EB
:1025BC00D5EF12F0D251D05DD351D159D8A0E9EF5B
:1025CC0012F0EBEF12F0EFEF12F0D251D05FD351CB
:1025DC00D15BD890D333D233D42FE0EF12F0D55156
:1025EC00D8B4FBEF12F0FDEF12F001EF13F0D06D49
:1025FC00D11FD8B0D12BD0C0D0F0D1C0D1F01200A7
:10260C00270E0001D16F100ED06F1BEF13F0D00707
:10261C00D8A0D107D051D111D8A417EF13F019EFCE
:10262C0013F01BEF13F058EF13F082B020EF13F000
:10263C0022EF13F00DEF13F0270ED16F100ED06FA9
:10264C0036EF13F0D007D8A0D107D051D111D8A4B0
:10265C0032EF13F034EF13F036EF13F019EF13F0F1
:10266C0082A03BEF13F03DEF13F028EF13F0270E91
:10267C00D16F100ED06F51EF13F0D007D8A0D10747
:10268C00D051D111D8A44DEF13F04FEF13F051EFFF
:10269C0013F019EF13F082B056EF13F058EF13F05C
:1026AC0043EF13F012000600E1CF1EF0E2CF1FF053
:1026BC00D9CF20F0DACF21F0F3CF22F0F4CF23F0F2
:1026CC00F2AA6BEF13F06DEF13F091EF13F0F2A48D
:1026DC0072EF13F074EF13F091EF13F0F294B2C0A9
:1026EC00D6FFB3C0D7FF00019A4B9B2B020E9A1951
:1026FC009B11D8A484EF13F086EF13F08FEF13F037
:10270C0064EC0EF0BBEC10F0000E00019B6F000EA1
:10271C009A6F9BEC0AF023C0F4FF22C0F3FF21C098
:10272C00DAFF20C0D9FF1FC0E2FF1EC0E1FF4692B6
:10273C0011003E0EF66E2B0EF76E000EF86E00EECC
:10274C00EEF010EE0CF00900F5CFEEFFE550E15085
:10275C00FAE14A0EF66E2B0EF76E000EF86E00EED6
:10276C0042F010EE04F00900F5CFEEFFE550E15019
:10277C00FAE101EE00F06E0EEE6AE806FDE100EE05
:10278C0060F0700EEE6AE806FDE100EE24F01E0E1D
:10279C00EE6AE806FDE1469046920001B9EF14F0AE
:1027AC000001D06FD0C0D2F0000E0001D16FD0AFBD
:1027BC00E2EF13F0E4EF13F0E7EF13F08B8AE8EF9E
:1027CC0013F08B9A8BA8EDEF13F0EFEF13F0F3EF00
:1027DC0013F0D880D237F6EF13F0D251D225D26F46
:1027EC008B8600F000F000F000F000F000F08B960B
:1027FC000001D890D037D12B070ED16508EF14F01B
:10280C000AEF14F0DDEF13F0120096EC15F0979C24
:10281C008E9C110E0001D66F3A0EE82EFED7D62FE5
:10282C00FCD700F08E8C000E7BEC15F0010E7BECCF
:10283C0015F0000E0001D36F120E6BEC15F0310E7B
:10284C000001D66FB20EE82EFED7D62FFCD700F0C3
:10285C00320E7EEC14F03C0E7EEC14F00C0E7EEC82
:10286C0014F0010E7EEC14F0060E7EEC14F0120047
:10287C004DEF14F0D6C0F6FFD7C0F7FF000EF86E80
:10288C000800F5505EEC14F00001D64BD72BD6C0E7
:10289C00F6FFD7C0F7FF000EF86E0800F5500009E0
:1028AC00D8A45BEF14F05DEF14F040EF14F01200BD
:1028BC000001D56F040EE82EFED7800E0001D36FF9
:1028CC00120E6BEC15F000D0D5C0D3F0130E6BECE0
:1028DC0015F000D0C00E0001D36F120E6BEC15F08A
:1028EC0000D0000E0001D36F120E6BEC15F012002D
:1028FC000001D56F040EE82EFED7000E0001D36F39
:10290C00120E6BEC15F000D0D5C0D3F0130E6BEC9F
:10291C0015F000D0400E0001D36F120E6BEC15F0C9
:10292C0000D0000E0001D36F120E6BEC15F01200EC
:10293C00928A9380000E956E000E836EF28EF28A50
:10294C00F292000E956E000E8C6E0F0EC16E000E84
:10295C00896EF30E926E000E8A6E9368000E8B6E6B
:10296C00D70E946E12009EEC14F032EC10F0000EA8
:10297C00956E000E8C6E0BEC14F0010E7EEC14F0C8
:10298C00D0EC14F0A8EC0FF01EEC08F0C8EF14F02B
:10299C0007EF00F0D39ED396D384D350FC0B0209DF
:1029AC00D36ED58ED58CD59AD598D596700ED3126C
:1029BC00070ED512000E0001B36FB10EB26F1200EC
:1029CC000001D051D203F3CFD4F0F4CFD5F0D051D5
:1029DC00D303F350D527D151D203F350D527D4C00C
:1029EC00D0F0D5C0D1F01200030E3C18D8A401EFE2
:1029FC0015F003EF15F00CEF15F08CA808EF15F09F
:102A0C000BEF15F08C880CEF15F08C981200030E60
:102A1C003C18D8A414EF15F016EF15F01FEF15F0B5
:102A2C008CA61BEF15F01EEF15F08C861FEF15F022
:102A3C008C961200030E3C18D8A427EF15F029EF42
:102A4C0015F032EF15F08CA02EEF15F031EF15F0DC
:102A5C008C8032EF15F08C901200030E3C18D8A429
:102A6C003AEF15F03CEF15F045EF15F08CA441EF63
:102A7C0015F044EF15F08C8445EF15F08C94120092
:102A8C0001500302F3CF05F0F4CF06F0015004021D
:102A9C00F350062602500302F350062605C001F03F
:102AAC0006C002F0120094908B90410E0001D06F82
:102ABC00EE0EE82EFED7D02FFCD700F08B80100E38
:102ACC00E82EFED700D0948012000001D46F8994B8
:102ADC00400ED6EC13F00001D451D6EC13F00001EB
:102AEC00D351D6EC13F0898412000001D36F899472
:102AFC00400ED6EC13F00001D351D6EC13F0000EBF
:102B0C00D6EC13F089841200030E3C6E8CA291EF6C
:102B1C0015F094EF15F08C8295EF15F08C92120055
:102B2C0092949488949A949689848B888B9A8B9699
:102B3C00120000093D0001000100010001005000DD
:022B4C00140073
:020000040020DA
:08000000FFFFFFFFFFFFFFFF00
:020000040030CA
:0E000000FF08191EF38381FFFFC0FFE0FF40E1
:00000001FF
